:100000000C9438000C9455000C9455000C94550039
:100010000C9455000C9455000C9455000C94CD0094
:100020000C9455000C9455000C9455000C945500FC
:100030000C9455000C9455000C9455000C945500EC
:100040000C9455000C9455000C9455000C945500DC
:100050000C9455000C9455000C9455000C945500CC
:100060000C9455000C9455006E616E00696E66002C
:1000700011241FBECFEFD8E0DEBFCDBF11E0A0E05E
:10008000B1E0ECEEF6E102C005900D92A633B107A7
:10009000D9F721E0A6E3B1E001C01D92A434B20774
:1000A000E1F70E94F5040C94CA0A0C94000082E067
:1000B0008093B00094E09093B1008093700089EF3A
:1000C0008093B30008952FB7F89460913601709132
:1000D000370180913801909139012FBF0895E4E6EE
:1000E000F0E080818F7B8083E0E780818260808385
:1000F0000895E0E7F0E080818D7F8083E4E68081F1
:100100008064808308958FB7F8941092360110921E
:10011000370110923801109239018FBF0895EFB75F
:10012000F894209136013091370140913801509177
:100130003901DC01CB01820F931FA41FB51F8093EF
:10014000360190933701A0933801B0933901EFBF86
:100150000895EF92FF920F931F93EFB7F8942091B9
:1001600036013091370140913801509139017901C0
:100170008A01E61AF70A080B190BC701D801809308
:10018000360190933701A0933801B0933901EFBF46
:100190001F910F91FF90EF9008951F921FB61F922D
:1001A00011248F939F93AF93BF93809136019091C9
:1001B0003701A0913801B09139010196A11DB11DFF
:1001C0008093360190933701A0933801B0933901A1
:1001D000BF91AF919F918F911F901FBE1F90189557
:1001E000CF93C82F8A3019F48DE00E94F0008091DF
:1001F000C00085FFFCCFC093C60080E090E0CF91A7
:1002000008958091C00087FFFCCF8091C60090E0E8
:1002100008951092C50087E68093C400E0ECF0E0FA
:1002200080818D7F808386E08093C20088E1809307
:10023000C10008950E9409018EE091E080933C0185
:1002400090933D0180E091E080933A0190933B01CF
:10025000089590917C00906490937C0090917A0036
:10026000976090937A0090917A00906890937A00CA
:1002700090917C00982B90937C0090917C00907FD3
:1002800090937C00833029F190F48130C1F082306A
:10029000E1F080917A00806480937A0080917A0006
:1002A00086FDFCCF8091780090917900089584308C
:1002B000A1F0853071F780917C00856003C080914A
:1002C0007C00816080937C00E4CF80917C00826020
:1002D000F9CF80917C008360F5CF80917C008460B1
:1002E000F1CFAFE0B0E0E7E7F1E00C9491057C01DD
:1002F0003B015A01FC0116821782838181FF51C3A1
:100300009AE0292EF7012381F30123FD859123FF34
:1003100081913F01811509F442C0853239F423FDF2
:10032000959123FF91913F01953239F4B70190E007
:100330000E94A70965015601E5CF30E010E0812C4D
:10034000912CF0E28F1608F03CC09B3279F160F4FA
:10035000903271F1933291F19E3209F045C086FCE2
:100360001EC0689486F806C09D3229F1903359F575
:10037000689480F8F30123FD959123FF91913F014B
:100380009111DFCF082D097F903709F481C208F061
:1003900077C2983509F47FC29F3609F483C2F7010A
:1003A000868197812F96E2E10C94AD05689481F8DF
:1003B000689482F8DFCF689483F8DCCF689484F87F
:1003C000D9CF87FC1BC080ED890F8A3028F686FEC6
:1003D00005C0129D800D1124182FCCCF929C800D4A
:1003E0001124982E8F2AC6CF9C3619F4689487F86A
:1003F000C1CF9C3409F1983609F4BCCF3115F1F026
:10040000892F8F7D8554833008F095C1650128E0E0
:10041000C20ED11C8FE3898301E010E05E013FEF43
:10042000A31AB30AE89487F883FC04C009151105E0
:1004300008F4E8C1592CFEC131E09CCF8BEB890F49
:10044000833090F4689484F8905E86FE16E04FE363
:100450008422953689F4689486F8212F183010F09C
:1004600027E017E0412C14C08BE9890F833008F096
:1004700062C1E89484F8E9CF963699F5689487F8D4
:10048000812F1C3308F08BE344244394480E27E06B
:10049000F50161917191819191916F01042DAE01EE
:1004A0004F5F5F4F0E94B9085C013980832D8970CE
:1004B0000DE2813029F082FA002705F981FC0BE278
:1004C000F32DFC705F2EF11541F133FA332433F82C
:1004D00001116AC224E0512C921608F47CC283E018
:1004E00068C220E0111509F4BDCF1150B6CF8110BC
:1004F0008052B70190E00E94A7090F5F1F4FF801DB
:1005000084918111F4CF511409F415CFB70180E221
:1005100090E00E94A7095A94F6CF87FE2FC0842D41
:100520008A0D34FE04C09A81913309F48150442429
:100530004394181634F4482EF9E08F1710F088E031
:10054000482EC501B7FE02C080E090E0019601117F
:100550000196111531F0212F30E02F5F3F4F820FB0
:10056000931F8915910514F4592C581A882D8970F8
:10057000A1F551102BC00115C9F131C086FC23C073
:10058000E12FF0E01A151B043CF02CEFA2162FEF20
:10059000B20614F0689487F8CE010396E80FF91FAD
:1005A00001C01150111519F082918033D1F387FEEB
:1005B0000AC044244394410EA116B10414F41A193C
:1005C000C0CF10E0BECF85E090E0C1CFB70180E2A0
:1005D00090E00E94A7095A94CCCF011529F0B701E9
:1005E000802F90E00E94A70983FC02C051103FC0F9
:1005F00087FE56C04501B7FE02C0812C912CCE016A
:1006000001968A0D9B1DFC01E819F909EC87FD870D
:100610009501241931092E873F87012F10E011958C
:1006200001951109A814B9044CF18E859F85881590
:10063000990524F5EC85FD858181F1E08F1A9108FB
:1006400080169106ECF02C853D852F5F3F4F2C875F
:100650003D87B70190E00E94A7093FEF83169804F9
:1006600009F7B7018EE290E00E94A709DBCFB7013E
:1006700080E390E00E94A7095A94B8CF80E3DDCFD1
:10068000A814B90431F49A81953318F039F434FE82
:1006900005C0B70190E00E94A70935CF81E3F9CFEB
:1006A0008A81813311F0E89434F8B70190E00E9418
:1006B000A709111124C085E490E084FC02C085E6FE
:1006C00090E0B7010E94A709A114B1041CF061F5E4
:1006D00034FE2AC0B194A194B1088DE2B70190E034
:1006E0000E94A70980E39AE0A916B104FCF4B701BF
:1006F00090E00E94A709B701C501C096CCCFB70111
:100700008EE290E00E94A7091E5F02E0802F0F5F3B
:10071000FE013196E80FF11D8081B70190E00E9443
:10072000A7090113F3CFC7CF8BE2D8CF8F5F4AE081
:10073000A41AB108D8CF9336B9F1933709F442C05F
:10074000933509F44EC0943619F0993609F07EC0FD
:10075000F50187FE73C061917191819191916F0153
:10076000082D0F7697FF03C00E94890500682AE0D4
:1007700030E05E01FFEFAF1ABF0AA5010E94FE093B
:10078000B82EBA1806FF98C0802F8E7FB11608F0D9
:1007900092C004FFE4C002FDD8C00E7E512E802F0F
:1007A000867809F494C0D6C06501E2E0CE0ED11C73
:1007B000F5018081898301E010E05E01FFEFAF1A4F
:1007C000BF0A30CEF501A190B1906F01612F70E0AA
:1007D00086FC02C06FEF7FEFC5010E949C098C016F
:1007E00021CEF501A190B1906F01612F70E086FCE0
:1007F00002C06FEF7FEFC5010E9491098C016894E0
:1008000087F812CEB70180E290E00E94A7099A947F
:100810000DCEF50187FC859187FE81915F01B701BF
:1008200090E00E94A70981E0511001C080E0581AB1
:10083000015011090115110561F765CE61917191A2
:100840006F01872F880F880B982F8ACF953709F073
:1008500099CD082D0F7E2AE030E0F50107FF25C075
:1008600061917191819191916F015E01FFEFAF1ADA
:10087000BF0AA5010E94FE09B82EBA180F7782CFD1
:10088000983709F08CCD84FC04C020E130E0E5CF3E
:1008900000610460FACF84FE02C0082D066020E1EA
:1008A00032E0DBCF28E030E0D8CF619171916F0169
:1008B00080E090E0DACF082F5B2C04FF70CFFE01C0
:1008C000EB0DF11D8081803309F042C0097E03FDEC
:1008D0000EC000FF50C01B2D591418F4190D151926
:1008E000592C892D8519951408F480E0580E591457
:1008F00008F043C09518592C04FF41C0B70180E3AC
:1009000090E00E94A70902FF09C088E590E001FD80
:1009100002C088E790E0B7010E94A709B116D0F1A4
:100920008E010F5F1F4FBA949E012E5F3F4F2B0D1C
:10093000311D5901F50182915F01B70190E00E94DC
:10094000A709A016B106B1F7DECD512E082FB7CFFB
:1009500002FD02C05394BBCF53945394B8CF512E91
:10096000082F1DCFB70180E290E00E94A709A39451
:10097000A914C0F3B6CFA52CFBCF512CBDCF802F2F
:10098000867861F280E201FD8BE207FD8DE2B7011E
:1009900090E0C2CFB70180E390E00E94A709115018
:1009A000BDCF8FEF9FEFFECCF5E0512C9F1670F07E
:1009B00084E0592C581A83FC07C0B70180E290E00C
:1009C0000E94A7095A94C9F7011529F0B701802F91
:1009D00090E00E94A70908E610E0311002C00CE682
:1009E00010E084FA882484F88ACD00D000D0CDB7F6
:1009F000DEB70E9457000E941A0180E090E00E943A
:100A00005C0ACB010E94B0087894A12CB12C45015E
:100A10000E9463006B017C0180E00E942901A60115
:100A2000B701481959096A097B09483E53406105D5
:100A3000710570F3BC0180E090E00E94DD069B012F
:100A4000AC0160E070EC8FE794E40E94350620E092
:100A500030E040E85FE30E94C8059B01AC0160E024
:100A600070E080E89FE30E9435060E94730720E053
:100A700030EE46E755E40E9435062FE03FEC4BE5AB
:100A80005BE30E94C9059B01AC0160E070E080E877
:100A90009FE30E94350623E333E948E853E40E94CC
:100AA000C80569837A838B839C830E94A706B62E30
:100AB000A72E872F880F880B982F0E94DF069B0197
:100AC000AC0169817A818B819C810E94C80520E0FC
:100AD00030E048EC52E40E94BB070E94A7069B014D
:100AE00077FF04C022273327261B370B3F932F9312
:100AF000AF92BF9280E291E09F938F930E94E809AA
:100B00000F900F900F900F900F900F90460157018C
:100B10007FCF90958095709561957F4F8F4F9F4FB8
:100B200008952F923F924F925F926F927F928F9291
:100B30009F92AF92BF92CF92DF92EF92FF920F936C
:100B40001F93CF93DF93CDB7DEB7CA1BDB0B0FB676
:100B5000F894DEBF0FBECDBF09942A883988488833
:100B60005F846E847D848C849B84AA84B984C884C9
:100B7000DF80EE80FD800C811B81AA81B981CE0FC0
:100B8000D11D0FB6F894DEBF0FBECDBFED010895A5
:100B90005058BB27AA270E94E0050C9431070E94F9
:100BA000230738F00E942A0720F039F49F3F19F4F8
:100BB00026F40C9420070EF4E095E7FB0C941A073A
:100BC000E92F0E94420758F3BA1762077307840798
:100BD000950720F079F4A6F50C9464070EF4E095DF
:100BE0000B2EBA2FA02D0B01B90190010C01CA01E7
:100BF000A0011124FF27591B99F0593F50F4503E92
:100C000068F11A16F040A22F232F342F4427585F83
:100C1000F3CF469537952795A795F0405395C9F79B
:100C20007EF41F16BA0B620B730B840BBAF0915053
:100C3000A1F0FF0FBB1F661F771F881FC2F70EC0F2
:100C4000BA0F621F731F841F48F4879577956795C5
:100C5000B795F7959E3F08F0B0CF9395880F08F0B1
:100C60009927EE0F9795879508950E9449060C9451
:100C700031070E942A0758F00E94230740F029F408
:100C80005F3F29F00C941A0751110C9465070C94DE
:100C900020070E94420768F39923B1F3552391F38B
:100CA000951B550BBB27AA2762177307840738F0DB
:100CB0009F5F5F4F220F331F441FAA1FA9F335D038
:100CC0000E2E3AF0E0E832D091505040E695001CEC
:100CD000CAF72BD0FE2F29D0660F771F881FBB1FA6
:100CE000261737074807AB07B0E809F0BB0B802D84
:100CF000BF01FF2793585F4F3AF09E3F510578F0B0
:100D00000C941A070C9465075F3FE4F3983ED4F304
:100D1000869577956795B795F7959F5FC9F7880F83
:100D2000911D9695879597F90895E1E0660F771FD5
:100D3000881FBB1F621773078407BA0720F0621B66
:100D4000730B840BBA0BEE1F88F7E09508950E9491
:100D5000AE066894B1110C94650708950E944A0785
:100D600088F09F5798F0B92F9927B751B0F0E1F06C
:100D7000660F771F881F991F1AF0BA95C9F714C01C
:100D8000B13091F00E946407B1E008950C946407BB
:100D9000672F782F8827B85F39F0B93FCCF3869555
:100DA00077956795B395D9F73EF4909580957095B2
:100DB00061957F4F8F4F9F4F0895E89409C097FB2F
:100DC0003EF490958095709561957F4F8F4F9F4F22
:100DD0009923A9F0F92F96E9BB279395F695879566
:100DE00077956795B795F111F8CFFAF4BB0F11F429
:100DF00060FF1BC06F5F7F4F8F4F9F4F16C08823D0
:100E000011F096E911C0772321F09EE8872F762F05
:100E100005C0662371F096E8862F70E060E02AF046
:100E20009A95660F771F881FDAF7880F9695879532
:100E300097F9089597F99F6780E870E060E008955A
:100E40009FEF80EC089500240A94161617061806E2
:100E50000906089500240A941216130614060506BE
:100E60000895092E0394000C11F4882352F0BB0F4F
:100E700040F4BF2B11F460FF04C06F5F7F4F8F4FB2
:100E80009F4F089557FD9058440F551F59F05F3FED
:100E900071F04795880F97FB991F61F09F3F79F09C
:100EA00087950895121613061406551FF2CF46951E
:100EB000F1DF08C0161617061806991FF1CF8695A0
:100EC0007105610508940895E894BB276627772784
:100ED000CB0197F9089516F00C9428080C9420077C
:100EE00068940C941A070E944A07A8F39923C1F347
:100EF000AEF3DF93CF931F930F93FF92C92FDD279C
:100F000088232AF02197660F771F881FDAF720E0E1
:100F100030E040E85FEB9FE3883920F0803E38F016
:100F200021968F770E94C905E8E9F5E104C00E9487
:100F3000C905E5ECF5E10E9436088B01BE01EC0124
:100F4000FB2E6F5771097595771F880B990B0E94BF
:100F5000DF0628E132E741E35FE30E94CE07AF2DD1
:100F60009801AE01FF900F911F91CF91DF910E94E8
:100F7000E0050C9431070E94CE070C9431070E94C3
:100F8000230738F00E942A0720F0952311F00C94D3
:100F90001A070C94200711240C9465070E9442073D
:100FA00070F3959FC1F3950F50E0551F629FF001BC
:100FB000729FBB27F00DB11D639FAA27F00DB11DD5
:100FC000AA1F649F6627B00DA11D661F829F22275E
:100FD000B00DA11D621F739FB00DA11D621F839FE5
:100FE000A00D611D221F749F3327A00D611D231FBB
:100FF000849F600D211D822F762F6A2F11249F5709
:1010000050409AF0F1F088234AF0EE0FFF1FBB1F0B
:10101000661F771F881F91505040A9F79E3F5105CA
:1010200080F00C941A070C9465075F3FE4F3983E38
:10103000D4F3869577956795B795F795E7959F5F74
:10104000C1F7FE2B880F911D9695879597F9089506
:101050009F3F31F0915020F4879577956795B7952C
:10106000880F911D9695879597F90895DF93CF93F3
:101070001F930F93FF92EF92DF927B018C01689494
:1010800006C0DA2EEF010E94CE07FE01E894A5917A
:101090002591359145915591A6F3EF010E94E00508
:1010A000FE019701A801DA9469F7DF90EF90FF90B5
:1010B0000F911F91CF91DF910895AAE0B0E0E3E690
:1010C000F8E00C94A10589879A87FC016081718101
:1010D0008281938100977040604021F464E279ED51
:1010E0008BE597E02DE133EF41E050E00E946F0A7D
:1010F00029833A834B835C839B01AC01A7EAB1E46B
:101100000E94860A6D837E838F839887ACEEB4EF4E
:1011100029813A814B815C810E94940A2D813E8114
:101120004F815885260F371F481F591FC901DA0103
:10113000B7FF03C00197A109B048E985FA8580830C
:101140009183A283B3839F772A96E2E00C94BD0536
:101150000E945D0808958CE191E00E945D08089569
:1011600080931C0190931D0110921E0110921F018B
:101170000895283008F027E03327DA01990F311D50
:1011800087FD916000966105710539F432602E5F2C
:101190003D9330E32A95E1F708959F3F30F0803882
:1011A0007105610509F03C5F3C5F3D93913008F0AB
:1011B0008068911DDF93CF931F930F93FF92EF925F
:1011C000192F987F9695E92F96959695E90FFF2709
:1011D000E45BF94E99273327EE24FF24A701E701AA
:1011E00005900894079428F4360FE71EF81E491F4F
:1011F000511D660F771F881F991F0694A1F7059050
:10120000079428F4E70EF81E491F561FC11D770FDB
:10121000881F991F661F0694A1F70590079428F46C
:10122000F80E491F561FC71FD11D880F991F661F33
:10123000771F0694A1F70590079420F4490F561FD5
:10124000C71FD81F990F661F771F881F0694A9F71D
:1012500084911095177041F0D695C795579547958D
:10126000F794E7941A95C1F7E2EFF5E168941590C9
:10127000159135916591959105907FE27395E118EF
:10128000F10A430B560BC90BD009C0F7E10CF11E54
:10129000431F561FC91FD01D7EF4703311F48A9569
:1012A000E6CFE894015030F0080F0AF40027021747
:1012B00008F4202F2395022F7A3328F079E37D93C9
:1012C0002A95E9F710C07D932A9589F6069497959B
:1012D0006795379517951794E118F10A430B560B4C
:1012E000C90BD00998F023957E9173957A3308F055
:1012F00070E37C932013B8F77E9170617D9330F09A
:10130000839571E37D9370E32A95E1F71124EF90C3
:10131000FF900F911F91CF91DF91992787FD9095B5
:101320000895FC010590615070400110D8F7809538
:1013300090958E0F9F1F0895FC01615070400190A1
:101340000110D8F7809590958E0F9F1F0895A3E008
:10135000B0E0EDEAF9E00C94A005182F99836A83B8
:101360007B83DB0113968C9181FD09C01FEFBFEFDA
:10137000B983812F99812396E3E00C94BC0582FF09
:101380001BC0EA81FB8126813781848195812817E2
:10139000390754F40190F081E02DCF010196AA8124
:1013A000BB818D939D931083EA81FB818681978118
:1013B000019686839783DDCFAA81BB811896ED9134
:1013C000FD911A97BD01812F0995892B69F3CECF25
:1013D000A0E0B0E0EEEEF9E00C94A105AE014B5FA9
:1013E0005F4FFA0161917191AF0180913C01909141
:1013F0003D010E947101E2E00C94BD05FA01AA27AB
:10140000283051F1203181F1E8946F936E7F6E5F47
:101410007F4F8F4F9F4FAF4FB1E03ED0B4E03CD0F5
:10142000670F781F891F9A1FA11D680F791F8A1FD8
:10143000911DA11D6A0F711D811D911DA11D20D03F
:1014400009F468943F912AE0269F11243019305DF9
:101450003193DEF6CF010895462F4770405D4193EA
:10146000B3E00FD0C9F7F6CF462F4F70405D4A3337
:1014700018F0495D31FD4052419302D0A9F7EACFFF
:10148000B4E0A6959795879577956795BA95C9F72E
:1014900000976105710508959B01AC010A2E069421
:1014A0005795479537952795BA95C9F7620F731FDA
:1014B000841F951FA01D0895FC012FB7F89460911B
:1014C00040017091410180914201909143012FBFF1
:1014D000309721F060837183828393830895052E72
:1014E00097FB1EF400940E94890557FD07D00E94C7
:1014F000A80A07FC03D04EF40C948905509540953A
:10150000309521953F4F4F4F5F4F08950E94990AA4
:10151000A59F900DB49F900DA49F800D911D112447
:101520000895B7FF0C94860A0E94860A821B930BCB
:101530000895A29FB001B39FC001A39F700D811DAC
:101540001124911DB29F700D811D1124911D0895CC
:10155000A1E21A2EAA1BBB1BFD010DC0AA1FBB1FB7
:10156000EE1FFF1FA217B307E407F50720F0A21B29
:10157000B30BE40BF50B661F771F881F991F1A9496
:1015800069F760957095809590959B01AC01BD01C0
:10159000CF010895F894FFCF08000000BE922449BF
:1015A000123EABAAAA2ABECDCCCC4C3E0000008095
:1015B000BEABAAAAAA3E00000000BF000000803F08
:1015C0000000000000084178D3BB4387D1133D19C8
:1015D0000E3CC3BD4282AD2B3E68EC8276BED98FF5
:1015E000E1A93E4C80EFFFBE01C4FF7F3F00000039
:1015F000000000407A10F35A00A0724E1809001043
:10160000A5D4E80000E87648170000E40B54020077
:1016100000CA9A3B000000E1F505000080969800A2
:10162000000040420F000000A086010000001027CB
:1016300000000000E803000000006400000000005B
:101640000A00000000000100000000002C76D8888D
:10165000DC674F0823DFC1DFAE59E1B1B796E5E3A0
:10166000E453C63AE651997696E8E6C28426EB89B9
:101670008C9B62ED407C6FFCEFBC9C9F40F2BAA556
:101680006FA5F490055A2AF75C936B6CF9676DC1EE
:101690001BFCE0E40D47FEF520E6B500D0ED902EF2
:1016A0000300943577050080841E080000204E0A50
:1016B000000000C80C333333330F986E128311418E
:1016C000EF8D2114893BE65516CFFEE6DB18D18459
:1016D0004B381BF77C1D901DA4BBE4242032847280
:0C16E0005E228100C9F124ECA1E53D2749
:1016EC0000000001000000000000010100000000EB
:1016FC00000200000000F0000000000001000000EB
:10170C0043757272656E742076616C75653A20252E
:06171C00642E25640A00A2
:00000001FF
